:020000001028C6
:10000800FE00030EF0000408F1000A08F200831253
:1000180003137F08F300A32811282F22B4003022ED
:10002800B5003122B6003222B7003322B80034229C
:10003800B9003822F900A001A101A201A301A4017D
:10004800A501A601A701A801A901F701F8018301EB
:10005800D129FF0000308A007F08820732282A2928
:10006800D42883120313B3003308023E84000230FD
:1000780083130006031D4228B101080033088400D9
:10008800000803199828330A840000080339AA00D5
:100098002A08B2000130AA00330A84002A0880071F
:1000A8003308033E84000008031D7328320803192F
:1000B8006D28320AAA000130AB000030AC00672876
:1000C8000310AB0DAC0DAA0B64282B08AD002C084F
:1000D80070280230AD000030AE002D088D2832089F
:1000E80003198828320AAA000130AB000030AC009E
:1000F80080282C0DAC0CAB0CAA0B7D2883120313A3
:100108002B08AF002C088B280830AF000030B00057
:100118002F08AA002A08B1003208031D98283308BE
:1001280084000130831380023108AA002A08F400F1
:100138003308043E8400831300082D2008000B1D9B
:10014800C9280B1134083504031DB0280130B40246
:100158000030031CB503B50238083904031DBA285A
:10016800FF30B8070318B90AFF30B9073608370453
:10017800031DC428FF30B6070318B70AFF30B707B6
:1001880079080319C9280130F9027308FF007208B9
:100198008A0071088400700E8300FE0E7E0E09002E
:1001A80074088039F500F50CF50C83120313060862
:1001B80075067F397506860074084039F500F50E16
:1001C800F50DF50D06087506BF3975068600740825
:1001D8002039F500F50EF50D06087506DF397506A8
:1001E800860074081039F500F50E06087506EF3913
:1001F8007506860008007803031D19298312031366
:1002080038083904031D080006101722003A03199C
:1002180008002822003A03190800DF2188308312D9
:100228000313B6001330B700080002307806031D28
:1002380008001722003A031928298830831203136B
:10024800B6001330B7000800C2210800740802394C
:10025800F500F50D8312031305087506FD397506BB
:10026800850001307405F50005087506FE39750628
:10027800850074088039F500F50CF50C050875063D
:100288007F397506850074084039F500F50EF50DBF
:10029800F50D05087506BF39750685000800831237
:1002A8000313AA000330F6002A08023E84007608E9
:1002B800831380007408F6002A08033E8400760839
:1002C80080007508F6002A08840076088000080077
:1002D8000F30F6007608831603138605831203137E
:1002E800A301A1010230F6007608A4002030ED2118
:1002F800F401D42008000F30F600760883160313A3
:10030800850583120313A801A6010130F6007608BB
:10031800A9002530ED21F4012A21080083120313D6
:1003280034083504031908002530352020303520DD
:10033800143083120313B4000030B50008003830BD
:10034800F4007408831603138504FE30F40074085F
:100358008605831203130610F801F70108008312BB
:1003680003130519BB293230F4007408F900790821
:10037800031DC02901300800003008000330831233
:100388000313AB002B08F800F401F40A0330AB00A8
:100398002B08F5002530532108000E222022A32126
:1003A800FA218B17640092213522B321003A0319F0
:1003B800D6290422D629023083120313AB002B0856
:1003C800F800F4010330AB002B08F5002530532169
:1003D8000800F5000230F4007508023E8400740835
:1003E800831380007508840080010800813083161B
:1003F8000313810006308312031381008B16080053
:10040800831203130614E830B8000330B900F8016A
:10041800F80A0800143083120313B4000030B50042
:100428006C217F210800031083120313851D031418
:100438000030031801300800831603130515323005
:10044800F4007408F900080083120313050EF40081
:10045800740C013908001434003488341334E83437
:0C0468000334FF20392208003234080061
:02400E00FCFFB5
:00000001FF
