:10000000010A6400410A880C3200130C3300190AFB
:10001000C70C31000B0AF1020A0A0E0A0F0AFF0C84
:100020003C00FF0C3D001C02F2010306B3021D025E
:10003000F30113023F0012023E001F02800F3C003A
:10004000800C9C004307260A010C9E0003072A0A25
:100050006606080A120213014307300A010C310A2E
:10006000000C30000008FD091002340014024306A1
:100070003D0A460426040605000846052605060432
:100080000008FE090400FC09420A080C060066008C
:02009000000866
:0601F800330A030A450A68
:021FFE00EBFFF7
:00000001FF
